:020000040000FA
:0600000000F009EF00F022
:0E000800FFFF138213921100FFFFD1EF03F0F0
:100600000004467265656C7920617661696C61628F
:100610006C6520736F7572636520636F6465206F0E
:100620006E20476974487562202868747470733A44
:100630002F2F6769746875622E636F6D2F4669721C
:100640006D776172652D456E67696E656572732F92
:1006500050494331382D415049290D004465736993
:10066000676E6564206279204669726D7761726594
:1006700020456E67696E656572205465616D2E2038
:10068000436F7079726967687420323032332E0D8F
:100690000054686973206973206120736F667477F2
:1006A0006172652055415254206C696272617279A1
:1006B0002074657374210D0048656C6C6F20576F52
:1006C000726C64210D000D0D0000FFFF0E6EF2AE86
:1006D00002D0010E0F6EFFFFF29E8A96680EFFFF9A
:1006E000E82EFDD7000E106EFFFF0EA002D08A8606
:1006F00002D0FFFF8A96FFFFD8900E32680EFFFFF0
:10070000E82EFDD7102A070E1064EED78A86680EF1
:10071000FFFFE82EFDD70F50D8A4F28E1200FFFF86
:10072000FFFF89909290E8EC03F0B80E116E060E70
:10073000126EB5EC03F0910E116E060E126EB5EC52
:1007400003F05C0E116E060E126EB5EC03F0C60ED1
:10075000116E060E126EB5EC03F0020E116E060E4F
:10076000126EB5EC03F0FFFFFED7FFFF0CD0FFFFCA
:1007700011C0F6FF12C0F7FF0800FFFFF55065EC4F
:1007800003F0114A122AFFFF11C0F6FF12C0F7FF53
:100790000800FFFFF5500009D8B41200FFFFE7D7AB
:1007A000FFFF01EE00F010EEFFF0EE6AE550E150C1
:1007B000FCE1E250FAE100EE01F00D0EEE6AE8060F
:1007C000FDE113901392000EF86E000190EF03F01C
:1007D000FFFF8A869396F19CF250F288F250F28CD9
:0A07E000F28EF2921200FFFFFFFFFD
:020000040020DA
:08000000FFFFFFFFFFFFFFFF00
:020000040030CA
:0E000000FF220F0EFF0180FF0FC00FE00F4028
:00000001FF
