:020000040000FA
:0600000000F00BEF00F020
:10000800FFFF1B8282EC03F01B921100FFFFB0EF91
:0200180003F0F3
:100600000004496E697469616C697A6174696F6E1E
:050610002E2E2E00005B
:10061600FFFF11C009F012C00AF013C00BF014C09E
:100626000CF025D0FFFF0106000E025A035A045AA9
:10063600010E0926000E0A220B220C22FFFF015092
:10064600021003100410D8B412D00950115C056EC4
:100656000A501258066E0B501358076E0C50145859
:10066600086E0550061007100810D8A4DBD7FFFF48
:100676000150021003100410D8B41200FFFFDED799
:10068600FFFFFFFF9FEC03F092908990240E0D6E02
:10069600900E0E6E190EBDEC03F0020E016E060EE4
:1006A600026E64EC03F0FFFF010E891AF40E016E70
:1006B600010E026E000E036E000E046E0BEC03F0CC
:1006C600F2D7FFFF0ED0FFFFAC50ACA2FCD701C0A3
:1006D600F6FF02C0F7FF0800FFFFF5CFADFF014AA6
:1006E600022AFFFF01C0F6FF02C0F7FF0800FFFF66
:1006F600F5500009D8B41200FFFFE5D7FFFFFFFF52
:10070600F2A417D01550161017101810D8B405D02B
:100716001506000E165A175A185AFFFF010E112613
:10072600000E122213221422F29419C0D6FF1AC008
:10073600D7FFFFFF1200FFFFFFFFFF0E1A6E080E26
:10074600196EC00EF212810ED56E19C0D6FF1AC0F0
:10075600D7FFF294F28A1200FFFF00EE11F0080EA6
:10076600EE6AE806FDE11B901B92000EF86E000192
:1007760044EF03F0FFFF016E240EAC6E900EAB6EDD
:0A07860001C0AFFF1200FFFFFFFFEC
:020000040020DA
:08000000FFFFFFFFFFFFFFFF00
:020000040030CA
:0E000000FF220F0EFF0180FF0FC00FE00F4028
:00000001FF
