:020000040000FA
:0600000000F009EF00F022
:0E000800FFFF778277921100FFFFD1EF03F028
:100600000004467265656C7920617661696C61628F
:100610006C6520736F7572636520636F6465206F0E
:100620006E20476974487562202868747470733A44
:100630002F2F6769746875622E636F6D2F4669721C
:100640006D776172652D456E67696E656572732F92
:1006500050494331382D415049290D004465736993
:10066000676E6564206279204669726D7761726594
:1006700020456E67696E656572205465616D2E2038
:10068000436F7079726967687420323032332E0D8F
:100690000054686973206973206120736F667477F2
:1006A0006172652055415254206C696272617279A1
:1006B0002074657374210D0048656C6C6F20576F52
:1006C000726C64210D000D0D0000FFFF726EF2AE22
:1006D00002D0010E736EFFFFF29E8A960E0EFFFF90
:1006E000E82EFDD7000E746EFFFF72A002D08A863E
:1006F00002D0FFFF8A96FFFFD89072320E0EFFFFE6
:10070000E82EFDD7742A070E7464EED78A860E0E83
:10071000FFFFE82EFDD77350D8A4F28E1200FFFF22
:10072000FFFF89909290DEEC03F0B80E756E060E16
:10073000766EB5EC03F0910E756E060E766EB5EC26
:1007400003F05C0E756E060E766EB5EC03F0C60E09
:10075000756E060E766EB5EC03F0020E756E060E23
:10076000766EB5EC03F0FFFFFED7FFFF0CD0FFFF66
:1007700075C0F6FF76C0F7FF0800FFFFF55065EC87
:1007800003F0754A762AFFFF75C0F6FF76C0F7FFC3
:100790000800FFFFF5500009D8B41200FFFFE7D7AB
:1007A000FFFF00EE01F0710EEE6AE806FDE17790C2
:1007B0007792000EF86E000190EF03F0FFFF8A863B
:1007C0009396F19CF250F288F250F28CF28EF292F3
:0607D0001200FFFFFFFF15
:020000040020DA
:08000000FFFFFFFFFFFFFFFF00
:020000040030CA
:0E000000FF220F0EFF0180FF0FC00FE00F4028
:00000001FF
