:020000040000FA
:0600000000F015EF00F016
:10000800FFFF2782D9CF0CF0DACF0DF090EC04F087
:1000180065EC03F00DC0DAFF0CC0D9FF2792110080
:06002800FFFFC9EF04F028
:100600000010467265656C7920617661696C616283
:100610006C6520736F7572636520636F6465206F0E
:100620006E20476974487562202868747470733A44
:100630002F2F6769746875622E636F6D2F4669721C
:100640006D776172652D456E67696E656572732F92
:1006500050494331382D415049290D004465736993
:10066000676E6564206279204669726D7761726594
:1006700020456E67696E656572205465616D2E2038
:10068000436F7079726967687420323032332E0D8F
:100690000054686973206973206120736F667477F2
:1006A0006172652055415254206C696272617279A1
:1006B0002074657374210D0048656C6C6F20576F52
:1006C000726C64210D000D0D0000FFFFF2B2F2A864
:1006D00048D0000E096E81B044D0340EFFFFE82EE2
:1006E000FDD7000E0B6EFFFF650EFFFFE82EFDD756
:1006F00081A00ED00BC007F0010E086E072A03D0B0
:10070000FFFFD8900836FFFF072EFAD708500912CE
:10071000FFFF0B2A070E0B64E6D7010E2324016EA0
:10072000026A000E0222000E046E640E036EB5EC27
:1007300003F001500A6E24500A18D8B40BD0800E72
:100740002324D96EDA6A000EDA2209C0DFFF0AC05C
:1007500023F002D0FFFF2280FFFF680EFFFFE82E8C
:10076000FDD7FFFFF2921200FFFFFFFF000E066EA3
:1007700002AE06D0016C021ED8B0022A010E066E2F
:10078000FFFF04AE04D0036C041ED8B0042AFFFFA0
:1007900003500410D8B41CD0010E056E05D0FFFF25
:1007A000D89003360436052AFFFF04AEF8D7FFFFC2
:1007B0000350015C04500258D8A004D00350015EDD
:1007C0000450025AFFFFD89004320332052EEFD7AF
:1007D000FFFF0650D8B404D0016C021ED8B0022A24
:1007E000FFFF01C001F002C002F01200FFFFFFFF97
:1007F0001AC016F01BC017F01CC018F01DC019F06D
:1008000025D0FFFF0E06000E0F5A105A115A010E86
:100810001626000E172218221922FFFF0E500F1065
:1008200010101110D8B412D016501A5C126E175056
:100830001B58136E18501C58146E19501D58156E05
:100840001250131014101510D8A4DBD7FFFF0E5050
:100850000F1010101110D8B41200FFFFDED7FFFFE9
:10086000FFFFDCEC04F0899092908A989398EDEC6D
:1008700004F0B80E116E060E126EADEC04F0910E7F
:10088000116E060E126EADEC04F05C0E116E060ECB
:10089000126EADEC04F0C60E116E060E126EADECCB
:1008A00004F0020E116E060E126EADEC04F0FFFFA6
:1008B000010E891AF40E0E6E010E0F6E000E106EF0
:1008C000000E116EF7EC03F0F2D7FFFF0E6EF2AEE2
:1008D00002D0010E0F6EFFFFF29E8A96680EFFFF98
:1008E000E82EFDD7000E106EFFFF0EA002D08A8604
:1008F00002D0FFFF8A96FFFFD8900E32680EFFFFEE
:10090000E82EFDD7102A070E1064EED78A86680EEF
:10091000FFFFE82EFDD70F50D8A4F28E1200FFFF84
:10092000FFFFF2A417D01E501F1020102110D8B4C2
:1009300005D01E06000E1F5A205A215AFFFF010E35
:100940001A26000E1B221C221D22F29425C0D6FF5F
:1009500026C0D7FFFFFF1200FFFFFFFF0CD0FFFFF5
:1009600011C0F6FF12C0F7FF0800FFFFF55065EC5D
:1009700004F0114A122AFFFF11C0F6FF12C0F7FF60
:100980000800FFFFF5500009D8B41200FFFFE7D7B9
:10099000FFFF00EE80F0640EEE6AE806FDE100EE77
:1009A0001AF00B0EEE6AE806FDE127902792000E82
:1009B000F86E000130EF04F0FFFFFC0E266E1A0EF9
:1009C000256EC00EF212810ED56E25C0D6FF26C050
:1009D000D7FFF294F28A1200FFFFFFFF8A869396F8
:1009E000F19CD00EF212F28EF2921200FFFFFFFF86
:020000040020DA
:08000000FFFFFFFFFFFFFFFF00
:020000040030CA
:0E000000FF220F0EFF0180FF0FC00FE00F4028
:00000001FF
