:0600000000F05CEF00F0CF
:10000800FFFF1782FACF05F0FBCF06F0E9CF07F024
:10001800EACF08F0E1CF09F0E2CF0AF0D9CF0BF030
:10002800DACF0CF0F3CF0DF0F4CF0EF0F6CF0FF0DF
:10003800F7CF10F0F8CF11F0F5CF12F017C013F08A
:1000480018C014F019C015F01AC016F0000E026E90
:10005800020E016E5EEC00F0020E01180210D8B418
:10006800898016C01AF015C019F014C018F013C012
:1000780017F012C0F5FF11C0F8FF10C0F7FF0FC04E
:10008800F6FF0EC0F4FF0DC0F3FF0CC0DAFF0BC083
:10009800D9FF0AC0E2FF09C0E1FF08C0EAFF07C0B4
:1000A800E9FF06C0FBFF05C0FAFF17921100FFFF2A
:1000B80087EF00F0FFFF0250036E01C004F00ED07E
:1000C800FFFFF25008D0FFFFF05005D0FFFF9E5011
:1000D80002D0FFFFA150FFFF04160ED0FFFF035010
:1000E800000AD8B4EDD7010AD8B4EDD7030AD8B4BA
:1000F800EDD7010AD8B4EDD7FFFF04C001F0026ABA
:100108001200FFFFFFFF17901792000EF86E000114
:100118008EEF00F0FFFF9290F18CFFFFFED7FFFFFC
:020000040020DA
:08000000FFFFFFFFFFFFFFFF00
:020000040030CA
:0E000000FF220F0EFF0180FF0FC00FE00F4028
:00000001FF
